{
  "contractName": "STIER",
  "abi": [
    {
      "inputs": [
        {
          "internalType": "string",
          "name": "SYMBOL",
          "type": "string"
        },
        {
          "internalType": "string",
          "name": "NAME",
          "type": "string"
        },
        {
          "internalType": "uint8",
          "name": "DECIMALS",
          "type": "uint8"
        }
      ],
      "stateMutability": "nonpayable",
      "type": "constructor"
    },
    {
      "anonymous": false,
      "inputs": [
        {
          "indexed": true,
          "internalType": "address",
          "name": "from",
          "type": "address"
        },
        {
          "indexed": false,
          "internalType": "uint256",
          "name": "value",
          "type": "uint256"
        }
      ],
      "name": "Burn",
      "type": "event"
    },
    {
      "anonymous": false,
      "inputs": [
        {
          "indexed": false,
          "internalType": "address",
          "name": "userAddress",
          "type": "address"
        },
        {
          "indexed": false,
          "internalType": "address",
          "name": "referredBy",
          "type": "address"
        },
        {
          "indexed": false,
          "internalType": "uint256",
          "name": "amountPaid",
          "type": "uint256"
        },
        {
          "indexed": false,
          "internalType": "uint256",
          "name": "joingDate",
          "type": "uint256"
        }
      ],
      "name": "BuyToken",
      "type": "event"
    },
    {
      "anonymous": false,
      "inputs": [
        {
          "indexed": true,
          "internalType": "address",
          "name": "receiver",
          "type": "address"
        },
        {
          "indexed": false,
          "internalType": "address",
          "name": "fromUser",
          "type": "address"
        },
        {
          "indexed": false,
          "internalType": "uint256",
          "name": "levelIncome",
          "type": "uint256"
        },
        {
          "indexed": false,
          "internalType": "uint256",
          "name": "incomeReceived",
          "type": "uint256"
        }
      ],
      "name": "Distribution",
      "type": "event"
    },
    {
      "anonymous": false,
      "inputs": [
        {
          "indexed": true,
          "internalType": "address",
          "name": "previousOwner",
          "type": "address"
        },
        {
          "indexed": true,
          "internalType": "address",
          "name": "newOwner",
          "type": "address"
        }
      ],
      "name": "OwnershipTransferred",
      "type": "event"
    },
    {
      "anonymous": false,
      "inputs": [
        {
          "indexed": true,
          "internalType": "address",
          "name": "from",
          "type": "address"
        },
        {
          "indexed": true,
          "internalType": "address",
          "name": "to",
          "type": "address"
        },
        {
          "indexed": false,
          "internalType": "uint256",
          "name": "value",
          "type": "uint256"
        }
      ],
      "name": "Transfer",
      "type": "event"
    },
    {
      "anonymous": false,
      "inputs": [
        {
          "indexed": true,
          "internalType": "address",
          "name": "from",
          "type": "address"
        },
        {
          "indexed": false,
          "internalType": "uint256",
          "name": "value",
          "type": "uint256"
        },
        {
          "indexed": false,
          "internalType": "uint256",
          "name": "date",
          "type": "uint256"
        }
      ],
      "name": "Withdrawn",
      "type": "event"
    },
    {
      "inputs": [],
      "name": "E_Commerce_Token",
      "outputs": [
        {
          "internalType": "uint256",
          "name": "",
          "type": "uint256"
        }
      ],
      "stateMutability": "view",
      "type": "function",
      "constant": true
    },
    {
      "inputs": [],
      "name": "Gaming_Token",
      "outputs": [
        {
          "internalType": "uint256",
          "name": "",
          "type": "uint256"
        }
      ],
      "stateMutability": "view",
      "type": "function",
      "constant": true
    },
    {
      "inputs": [],
      "name": "ICO_Token",
      "outputs": [
        {
          "internalType": "uint256",
          "name": "",
          "type": "uint256"
        }
      ],
      "stateMutability": "view",
      "type": "function",
      "constant": true
    },
    {
      "inputs": [],
      "name": "MaxFee",
      "outputs": [
        {
          "internalType": "uint256",
          "name": "",
          "type": "uint256"
        }
      ],
      "stateMutability": "view",
      "type": "function",
      "constant": true
    },
    {
      "inputs": [],
      "name": "Max_Token",
      "outputs": [
        {
          "internalType": "uint256",
          "name": "",
          "type": "uint256"
        }
      ],
      "stateMutability": "view",
      "type": "function",
      "constant": true
    },
    {
      "inputs": [],
      "name": "NFT_Token",
      "outputs": [
        {
          "internalType": "uint256",
          "name": "",
          "type": "uint256"
        }
      ],
      "stateMutability": "view",
      "type": "function",
      "constant": true
    },
    {
      "inputs": [],
      "name": "Token_Sold",
      "outputs": [
        {
          "internalType": "uint256",
          "name": "",
          "type": "uint256"
        }
      ],
      "stateMutability": "view",
      "type": "function",
      "constant": true
    },
    {
      "inputs": [],
      "name": "_currentId",
      "outputs": [
        {
          "internalType": "uint256",
          "name": "",
          "type": "uint256"
        }
      ],
      "stateMutability": "view",
      "type": "function",
      "constant": true
    },
    {
      "inputs": [
        {
          "internalType": "address",
          "name": "",
          "type": "address"
        },
        {
          "internalType": "address",
          "name": "",
          "type": "address"
        }
      ],
      "name": "allowance",
      "outputs": [
        {
          "internalType": "uint256",
          "name": "",
          "type": "uint256"
        }
      ],
      "stateMutability": "view",
      "type": "function",
      "constant": true
    },
    {
      "inputs": [
        {
          "internalType": "address",
          "name": "",
          "type": "address"
        }
      ],
      "name": "balanceOf",
      "outputs": [
        {
          "internalType": "uint256",
          "name": "",
          "type": "uint256"
        }
      ],
      "stateMutability": "view",
      "type": "function",
      "constant": true
    },
    {
      "inputs": [
        {
          "internalType": "address",
          "name": "",
          "type": "address"
        }
      ],
      "name": "blackListMap",
      "outputs": [
        {
          "internalType": "bool",
          "name": "",
          "type": "bool"
        }
      ],
      "stateMutability": "view",
      "type": "function",
      "constant": true
    },
    {
      "inputs": [],
      "name": "decimals",
      "outputs": [
        {
          "internalType": "uint8",
          "name": "",
          "type": "uint8"
        }
      ],
      "stateMutability": "view",
      "type": "function",
      "constant": true
    },
    {
      "inputs": [
        {
          "internalType": "address",
          "name": "",
          "type": "address"
        }
      ],
      "name": "distributionIncome",
      "outputs": [
        {
          "internalType": "uint256",
          "name": "",
          "type": "uint256"
        }
      ],
      "stateMutability": "view",
      "type": "function",
      "constant": true
    },
    {
      "inputs": [],
      "name": "name",
      "outputs": [
        {
          "internalType": "string",
          "name": "",
          "type": "string"
        }
      ],
      "stateMutability": "view",
      "type": "function",
      "constant": true
    },
    {
      "inputs": [],
      "name": "owner",
      "outputs": [
        {
          "internalType": "address",
          "name": "",
          "type": "address"
        }
      ],
      "stateMutability": "view",
      "type": "function",
      "constant": true
    },
    {
      "inputs": [],
      "name": "publicSale",
      "outputs": [
        {
          "internalType": "uint256",
          "name": "",
          "type": "uint256"
        }
      ],
      "stateMutability": "view",
      "type": "function",
      "constant": true
    },
    {
      "inputs": [],
      "name": "symbol",
      "outputs": [
        {
          "internalType": "string",
          "name": "",
          "type": "string"
        }
      ],
      "stateMutability": "view",
      "type": "function",
      "constant": true
    },
    {
      "inputs": [],
      "name": "totalSupply",
      "outputs": [
        {
          "internalType": "uint256",
          "name": "",
          "type": "uint256"
        }
      ],
      "stateMutability": "view",
      "type": "function",
      "constant": true
    },
    {
      "inputs": [
        {
          "internalType": "address",
          "name": "newOwner",
          "type": "address"
        }
      ],
      "name": "transferOwnership",
      "outputs": [],
      "stateMutability": "nonpayable",
      "type": "function"
    },
    {
      "inputs": [
        {
          "internalType": "address",
          "name": "",
          "type": "address"
        }
      ],
      "name": "userAssets",
      "outputs": [
        {
          "internalType": "address",
          "name": "userAddress",
          "type": "address"
        },
        {
          "internalType": "uint256",
          "name": "withdrawableAsset",
          "type": "uint256"
        },
        {
          "internalType": "uint256",
          "name": "totalAsset",
          "type": "uint256"
        }
      ],
      "stateMutability": "view",
      "type": "function",
      "constant": true
    },
    {
      "inputs": [
        {
          "internalType": "address",
          "name": "",
          "type": "address"
        }
      ],
      "name": "users",
      "outputs": [
        {
          "internalType": "uint256",
          "name": "id",
          "type": "uint256"
        },
        {
          "internalType": "address",
          "name": "userAddress",
          "type": "address"
        },
        {
          "internalType": "address",
          "name": "referredBy",
          "type": "address"
        },
        {
          "internalType": "uint256",
          "name": "amountPaid",
          "type": "uint256"
        },
        {
          "internalType": "uint256",
          "name": "joingDate",
          "type": "uint256"
        },
        {
          "internalType": "uint256",
          "name": "referCount100",
          "type": "uint256"
        },
        {
          "internalType": "bool",
          "name": "activeAllLevel",
          "type": "bool"
        },
        {
          "internalType": "bool",
          "name": "isExist",
          "type": "bool"
        }
      ],
      "stateMutability": "view",
      "type": "function",
      "constant": true
    },
    {
      "inputs": [
        {
          "internalType": "address",
          "name": "_to",
          "type": "address"
        },
        {
          "internalType": "uint256",
          "name": "_value",
          "type": "uint256"
        }
      ],
      "name": "transfer",
      "outputs": [
        {
          "internalType": "bool",
          "name": "",
          "type": "bool"
        }
      ],
      "stateMutability": "nonpayable",
      "type": "function"
    },
    {
      "inputs": [
        {
          "internalType": "address",
          "name": "_from",
          "type": "address"
        },
        {
          "internalType": "address",
          "name": "_to",
          "type": "address"
        },
        {
          "internalType": "uint256",
          "name": "_value",
          "type": "uint256"
        }
      ],
      "name": "transferFrom",
      "outputs": [
        {
          "internalType": "bool",
          "name": "success",
          "type": "bool"
        }
      ],
      "stateMutability": "nonpayable",
      "type": "function"
    },
    {
      "inputs": [
        {
          "internalType": "address",
          "name": "_spender",
          "type": "address"
        },
        {
          "internalType": "uint256",
          "name": "_value",
          "type": "uint256"
        }
      ],
      "name": "approve",
      "outputs": [
        {
          "internalType": "bool",
          "name": "success",
          "type": "bool"
        }
      ],
      "stateMutability": "nonpayable",
      "type": "function"
    },
    {
      "inputs": [
        {
          "internalType": "uint256",
          "name": "_value",
          "type": "uint256"
        }
      ],
      "name": "burn",
      "outputs": [
        {
          "internalType": "bool",
          "name": "success",
          "type": "bool"
        }
      ],
      "stateMutability": "nonpayable",
      "type": "function"
    },
    {
      "inputs": [
        {
          "internalType": "address",
          "name": "_to",
          "type": "address"
        },
        {
          "internalType": "uint256",
          "name": "_value",
          "type": "uint256"
        }
      ],
      "name": "mint",
      "outputs": [
        {
          "internalType": "bool",
          "name": "success",
          "type": "bool"
        }
      ],
      "stateMutability": "nonpayable",
      "type": "function"
    },
    {
      "inputs": [
        {
          "internalType": "address",
          "name": "_blackListAddress",
          "type": "address"
        }
      ],
      "name": "addBlacklist",
      "outputs": [],
      "stateMutability": "nonpayable",
      "type": "function"
    },
    {
      "inputs": [
        {
          "internalType": "address",
          "name": "_blackListAddress",
          "type": "address"
        }
      ],
      "name": "removeBlacklist",
      "outputs": [],
      "stateMutability": "nonpayable",
      "type": "function"
    },
    {
      "inputs": [
        {
          "internalType": "uint256",
          "name": "_MaxFee",
          "type": "uint256"
        }
      ],
      "name": "updateMaxFee",
      "outputs": [],
      "stateMutability": "nonpayable",
      "type": "function"
    },
    {
      "inputs": [
        {
          "internalType": "address",
          "name": "_blackListAddress",
          "type": "address"
        }
      ],
      "name": "destroyBlackFunds",
      "outputs": [],
      "stateMutability": "nonpayable",
      "type": "function"
    },
    {
      "inputs": [
        {
          "internalType": "address",
          "name": "referredBy",
          "type": "address"
        },
        {
          "internalType": "uint256",
          "name": "_amount",
          "type": "uint256"
        },
        {
          "internalType": "uint256",
          "name": "mode",
          "type": "uint256"
        }
      ],
      "name": "buyToken",
      "outputs": [],
      "stateMutability": "nonpayable",
      "type": "function"
    },
    {
      "inputs": [
        {
          "internalType": "uint256",
          "name": "Coin",
          "type": "uint256"
        }
      ],
      "name": "checkAllowance",
      "outputs": [
        {
          "internalType": "uint256",
          "name": "",
          "type": "uint256"
        }
      ],
      "stateMutability": "view",
      "type": "function",
      "constant": true
    },
    {
      "inputs": [],
      "name": "withdrawStaking",
      "outputs": [
        {
          "internalType": "bool",
          "name": "",
          "type": "bool"
        }
      ],
      "stateMutability": "nonpayable",
      "type": "function"
    },
    {
      "inputs": [
        {
          "internalType": "address",
          "name": "_userAddress",
          "type": "address"
        }
      ],
      "name": "getWithdrawableBalance",
      "outputs": [
        {
          "internalType": "uint256",
          "name": "",
          "type": "uint256"
        }
      ],
      "stateMutability": "view",
      "type": "function",
      "constant": true
    },
    {
      "inputs": [
        {
          "internalType": "address",
          "name": "_userAddress",
          "type": "address"
        }
      ],
      "name": "getTotalBalance",
      "outputs": [
        {
          "internalType": "uint256",
          "name": "",
          "type": "uint256"
        }
      ],
      "stateMutability": "view",
      "type": "function",
      "constant": true
    },
    {
      "inputs": [
        {
          "internalType": "address",
          "name": "_userAddress",
          "type": "address"
        }
      ],
      "name": "getBV",
      "outputs": [
        {
          "internalType": "uint256",
          "name": "",
          "type": "uint256"
        }
      ],
      "stateMutability": "view",
      "type": "function",
      "constant": true
    },
    {
      "inputs": [],
      "name": "getCurrentPrice",
      "outputs": [
        {
          "internalType": "uint256",
          "name": "",
          "type": "uint256"
        }
      ],
      "stateMutability": "view",
      "type": "function",
      "constant": true
    },
    {
      "inputs": [
        {
          "internalType": "address",
          "name": "_userAddress",
          "type": "address"
        }
      ],
      "name": "withdrawTokenToUser",
      "outputs": [
        {
          "internalType": "bool",
          "name": "",
          "type": "bool"
        }
      ],
      "stateMutability": "nonpayable",
      "type": "function"
    },
    {
      "inputs": [
        {
          "internalType": "uint256",
          "name": "_status",
          "type": "uint256"
        }
      ],
      "name": "setIcoSaleStatus",
      "outputs": [],
      "stateMutability": "nonpayable",
      "type": "function"
    }
  ],
  "bytecode": "0x60806040526001600e60006101000a81548160ff0219169083151502179055506001600e60016101000a81548160ff021916908315150217905550600060145560016015557328f494c5c132f6eb6577bdc1aea53e00a84484a0601860006101000a81548173ffffffffffffffffffffffffffffffffffffffff021916908373ffffffffffffffffffffffffffffffffffffffff160217905550600a6019556402540be400601a556040518060800160405280600360ff168152602001600260ff168152602001600160ff168152602001600160ff16815250601b906004620000ea929190620005a4565b506040518060800160405280633b9aca0064ffffffffff168152602001636fc23ac064ffffffffff16815260200163ba43b74064ffffffffff16815260200164012a05f20064ffffffffff16815250601c9060046200014b929190620005fb565b5060405180608001604052806501d1a94a200065ffffffffffff1681526020016503a35294400065ffffffffffff168152602001650574fbde600065ffffffffffff168152602001650746a528800065ffffffffffff16815250601d906004620001b792919062000656565b50348015620001c557600080fd5b50604051620051de380380620051de8339818101604052810190620001eb9190620007f7565b336000806101000a81548173ffffffffffffffffffffffffffffffffffffffff021916908373ffffffffffffffffffffffffffffffffffffffff160217905550826002908051906020019062000243929190620006b2565b5081600190805190602001906200025c929190620006b2565b5080600360006101000a81548160ff021916908360ff160217905550600360009054906101000a900460ff1660ff16600a6200029991906200094b565b60058190555060055462030d40620002b2919062000a88565b60068190555060055462013880620002cb919062000a88565b60098190555060055461c350620002e3919062000a88565b600a81905550600554614e20620002fb919062000a88565b600b8190555060055461271062000313919062000a88565b600c819055506005546127106200032b919062000a88565b600d819055506040518061010001604052806015548152602001601860009054906101000a900473ffffffffffffffffffffffffffffffffffffffff1673ffffffffffffffffffffffffffffffffffffffff168152602001600073ffffffffffffffffffffffffffffffffffffffff16815260200160648152602001428152602001600281526020016001151581526020016001151581525060166000601860009054906101000a900473ffffffffffffffffffffffffffffffffffffffff1673ffffffffffffffffffffffffffffffffffffffff1673ffffffffffffffffffffffffffffffffffffffff1681526020019081526020016000206000820151816000015560208201518160010160006101000a81548173ffffffffffffffffffffffffffffffffffffffff021916908373ffffffffffffffffffffffffffffffffffffffff16021790555060408201518160020160006101000a81548173ffffffffffffffffffffffffffffffffffffffff021916908373ffffffffffffffffffffffffffffffffffffffff160217905550606082015181600301556080820151816004015560a0820151816005015560c08201518160060160006101000a81548160ff02191690831515021790555060e08201518160060160016101000a81548160ff021916908315150217905550905050601860009054906101000a900473ffffffffffffffffffffffffffffffffffffffff16601760006101000a81548173ffffffffffffffffffffffffffffffffffffffff021916908373ffffffffffffffffffffffffffffffffffffffff16021790555060156000815480929190620005969062000ba2565b919050555050505062000cc9565b828054828255906000526020600020908101928215620005e8579160200282015b82811115620005e7578251829060ff16905591602001919060010190620005c5565b5b509050620005f7919062000743565b5090565b82805482825590600052602060002090810192821562000643579160200282015b8281111562000642578251829064ffffffffff169055916020019190600101906200061c565b5b50905062000652919062000743565b5090565b8280548282559060005260206000209081019282156200069f579160200282015b828111156200069e578251829065ffffffffffff1690559160200191906001019062000677565b5b509050620006ae919062000743565b5090565b828054620006c09062000b36565b90600052602060002090601f016020900481019282620006e4576000855562000730565b82601f10620006ff57805160ff191683800117855562000730565b8280016001018555821562000730579182015b828111156200072f57825182559160200191906001019062000712565b5b5090506200073f919062000743565b5090565b5b808211156200075e57600081600090555060010162000744565b5090565b6000620007796200077384620008ba565b62000891565b90508281526020810184848401111562000798576200079762000c82565b5b620007a584828562000b00565b509392505050565b600082601f830112620007c557620007c462000c7d565b5b8151620007d784826020860162000762565b91505092915050565b600081519050620007f18162000caf565b92915050565b60008060006060848603121562000813576200081262000c8c565b5b600084015167ffffffffffffffff81111562000834576200083362000c87565b5b6200084286828701620007ad565b935050602084015167ffffffffffffffff81111562000866576200086562000c87565b5b6200087486828701620007ad565b92505060406200088786828701620007e0565b9150509250925092565b60006200089d620008b0565b9050620008ab828262000b6c565b919050565b6000604051905090565b600067ffffffffffffffff821115620008d857620008d762000c4e565b5b620008e38262000c91565b9050602081019050919050565b6000808291508390505b600185111562000942578086048111156200091a576200091962000bf0565b5b60018516156200092a5780820291505b80810290506200093a8562000ca2565b9450620008fa565b94509492505050565b6000620009588262000ae9565b9150620009658362000ae9565b9250620009947fffffffffffffffffffffffffffffffffffffffffffffffffffffffffffffffff84846200099c565b905092915050565b600082620009ae576001905062000a81565b81620009be576000905062000a81565b8160018114620009d75760028114620009e25762000a18565b600191505062000a81565b60ff841115620009f757620009f662000bf0565b5b8360020a91508482111562000a115762000a1062000bf0565b5b5062000a81565b5060208310610133831016604e8410600b841016171562000a525782820a90508381111562000a4c5762000a4b62000bf0565b5b62000a81565b62000a618484846001620008f0565b9250905081840481111562000a7b5762000a7a62000bf0565b5b81810290505b9392505050565b600062000a958262000ae9565b915062000aa28362000ae9565b9250817fffffffffffffffffffffffffffffffffffffffffffffffffffffffffffffffff048311821515161562000ade5762000add62000bf0565b5b828202905092915050565b6000819050919050565b600060ff82169050919050565b60005b8381101562000b2057808201518184015260208101905062000b03565b8381111562000b30576000848401525b50505050565b6000600282049050600182168062000b4f57607f821691505b6020821081141562000b665762000b6562000c1f565b5b50919050565b62000b778262000c91565b810181811067ffffffffffffffff8211171562000b995762000b9862000c4e565b5b80604052505050565b600062000baf8262000ae9565b91507fffffffffffffffffffffffffffffffffffffffffffffffffffffffffffffffff82141562000be55762000be462000bf0565b5b600182019050919050565b7f4e487b7100000000000000000000000000000000000000000000000000000000600052601160045260246000fd5b7f4e487b7100000000000000000000000000000000000000000000000000000000600052602260045260246000fd5b7f4e487b7100000000000000000000000000000000000000000000000000000000600052604160045260246000fd5b600080fd5b600080fd5b600080fd5b600080fd5b6000601f19601f8301169050919050565b60008160011c9050919050565b62000cba8162000af3565b811462000cc657600080fd5b50565b6145058062000cd96000396000f3fe608060405234801561001057600080fd5b506004361061023d5760003560e01c806395d89b411161013b578063dd62ed3e116100b8578063eb91d37e1161007c578063eb91d37e1461074b578063eb91e65114610769578063ed4e7e0614610785578063f2fde38b146107b7578063f3bdc228146107d35761023d565b8063dd62ed3e14610693578063e038dcd9146106c3578063e3ca8ad5146106f3578063e65615e914610711578063e671499b1461072f5761023d565b8063a9059cbb116100ff578063a9059cbb146105b5578063b46558ea146105e5578063c23f969c14610615578063d3d3819314610645578063dcee7fe3146106755761023d565b806395d89b41146104f65780639b8a62f6146105145780639cfe42da14610532578063a86de6941461054e578063a87430ba1461057e5761023d565b806340c10f19116101c957806374d968581161018d57806374d968581461045057806377f332e61461046c578063843592d31461048a578063845fd946146104ba5780638da5cb5b146104d85761023d565b806340c10f191461038657806342966c68146103b6578063550dddeb146103e6578063574fc4931461040257806370a08231146104205761023d565b80631ab18615116102105780631ab18615146102de5780631eb49f5a146102fc57806323b872dd1461031a578063313ce5671461034a57806333bc1c5c146103685761023d565b806306fdde0314610242578063095ea7b3146102605780630aaaef741461029057806318160ddd146102c0575b600080fd5b61024a6107ef565b6040516102579190613afa565b60405180910390f35b61027a6004803603810190610275919061359d565b61087d565b6040516102879190613adf565b60405180910390f35b6102aa60048036038101906102a591906134dd565b61090a565b6040516102b79190613adf565b60405180910390f35b6102c861092a565b6040516102d59190613d5c565b60405180910390f35b6102e6610930565b6040516102f39190613d5c565b60405180910390f35b610304610936565b6040516103119190613d5c565b60405180910390f35b610334600480360381019061032f919061354a565b61093c565b6040516103419190613adf565b60405180910390f35b610352610aa6565b60405161035f9190613e1e565b60405180910390f35b610370610ab9565b60405161037d9190613d5c565b60405180910390f35b6103a0600480360381019061039b919061359d565b610abf565b6040516103ad9190613adf565b60405180910390f35b6103d060048036038101906103cb919061365d565b610d18565b6040516103dd9190613adf565b60405180910390f35b61040060048036038101906103fb919061365d565b610ed4565b005b61040a610f6c565b6040516104179190613d5c565b60405180910390f35b61043a600480360381019061043591906134dd565b610f72565b6040516104479190613d5c565b60405180910390f35b61046a6004803603810190610465919061365d565b610f8a565b005b610474611060565b6040516104819190613d5c565b60405180910390f35b6104a4600480360381019061049f91906134dd565b611066565b6040516104b19190613d5c565b60405180910390f35b6104c26110b7565b6040516104cf9190613d5c565b60405180910390f35b6104e06110bd565b6040516104ed91906139b1565b60405180910390f35b6104fe6110e1565b60405161050b9190613afa565b60405180910390f35b61051c61116f565b6040516105299190613d5c565b60405180910390f35b61054c600480360381019061054791906134dd565b611175565b005b6105686004803603810190610563919061365d565b61125e565b6040516105759190613d5c565b60405180910390f35b610598600480360381019061059391906134dd565b61133c565b6040516105ac989796959493929190613d77565b60405180910390f35b6105cf60048036038101906105ca919061359d565b6113de565b6040516105dc9190613adf565b60405180910390f35b6105ff60048036038101906105fa91906134dd565b6113f5565b60405161060c9190613d5c565b60405180910390f35b61062f600480360381019061062a91906134dd565b611443565b60405161063c9190613adf565b60405180910390f35b61065f600480360381019061065a91906134dd565b6115a1565b60405161066c9190613d5c565b60405180910390f35b61067d6115f2565b60405161068a9190613adf565b60405180910390f35b6106ad60048036038101906106a8919061350a565b61189e565b6040516106ba9190613d5c565b60405180910390f35b6106dd60048036038101906106d891906134dd565b6118c3565b6040516106ea9190613d5c565b60405180910390f35b6106fb6118db565b6040516107089190613d5c565b60405180910390f35b6107196118e1565b6040516107269190613d5c565b60405180910390f35b610749600480360381019061074491906135dd565b6118e7565b005b6107536128d6565b6040516107609190613d5c565b60405180910390f35b610783600480360381019061077e91906134dd565b6128fe565b005b61079f600480360381019061079a91906134dd565b6129e7565b6040516107ae93929190613aa8565b60405180910390f35b6107d160048036038101906107cc91906134dd565b612a31565b005b6107ed60048036038101906107e891906134dd565b612bb6565b005b600180546107fc90614004565b80601f016020809104026020016040519081016040528092919081815260200182805461082890614004565b80156108755780601f1061084a57610100808354040283529160200191610875565b820191906000526020600020905b81548152906001019060200180831161085857829003601f168201915b505050505081565b600081601160003373ffffffffffffffffffffffffffffffffffffffff1673ffffffffffffffffffffffffffffffffffffffff16815260200190815260200160002060008573ffffffffffffffffffffffffffffffffffffffff1673ffffffffffffffffffffffffffffffffffffffff168152602001908152602001600020819055506001905092915050565b600f6020528060005260406000206000915054906101000a900460ff1681565b60045481565b60075481565b60095481565b6000601160008573ffffffffffffffffffffffffffffffffffffffff1673ffffffffffffffffffffffffffffffffffffffff16815260200190815260200160002060003373ffffffffffffffffffffffffffffffffffffffff1673ffffffffffffffffffffffffffffffffffffffff168152602001908152602001600020548211156109fd576040517f08c379a00000000000000000000000000000000000000000000000000000000081526004016109f490613b9c565b60405180910390fd5b81601160008673ffffffffffffffffffffffffffffffffffffffff1673ffffffffffffffffffffffffffffffffffffffff16815260200190815260200160002060003373ffffffffffffffffffffffffffffffffffffffff1673ffffffffffffffffffffffffffffffffffffffff1681526020019081526020016000206000828254610a899190613f36565b92505081905550610a9b848484612e1f565b600190509392505050565b600360009054906101000a900460ff1681565b600a5481565b600081600454610acf9190613e55565b6006541015610add57600080fd5b600e60019054906101000a900460ff16610b2c576040517f08c379a0000000000000000000000000000000000000000000000000000000008152600401610b2390613c9c565b60405180910390fd5b60008054906101000a900473ffffffffffffffffffffffffffffffffffffffff1673ffffffffffffffffffffffffffffffffffffffff163373ffffffffffffffffffffffffffffffffffffffff1614610bba576040517f08c379a0000000000000000000000000000000000000000000000000000000008152600401610bb190613b1c565b60405180910390fd5b81600454610bc89190613e55565b6006541415610bed576000600e60016101000a81548160ff0219169083151502179055505b81601060008573ffffffffffffffffffffffffffffffffffffffff1673ffffffffffffffffffffffffffffffffffffffff1681526020019081526020016000206000828254610c3c9190613e55565b925050819055508160046000828254610c559190613e55565b9250508190555081601060008573ffffffffffffffffffffffffffffffffffffffff1673ffffffffffffffffffffffffffffffffffffffff168152602001908152602001600020541015610ca857600080fd5b8273ffffffffffffffffffffffffffffffffffffffff16600073ffffffffffffffffffffffffffffffffffffffff167fddf252ad1be2c89b69c2b068fc378daa952ba7f163c4a11628f55a4df523b3ef84604051610d069190613d5c565b60405180910390a36001905092915050565b60008060009054906101000a900473ffffffffffffffffffffffffffffffffffffffff1673ffffffffffffffffffffffffffffffffffffffff163373ffffffffffffffffffffffffffffffffffffffff1614610da9576040517f08c379a0000000000000000000000000000000000000000000000000000000008152600401610da090613c1c565b60405180910390fd5b81601060003373ffffffffffffffffffffffffffffffffffffffff1673ffffffffffffffffffffffffffffffffffffffff168152602001908152602001600020541015610df557600080fd5b81601060003373ffffffffffffffffffffffffffffffffffffffff1673ffffffffffffffffffffffffffffffffffffffff1681526020019081526020016000206000828254610e449190613f36565b925050819055508160066000828254610e5d9190613f36565b925050819055508160046000828254610e769190613f36565b925050819055503373ffffffffffffffffffffffffffffffffffffffff167fcc16f5dbb4873280815c1ee09dbd06736cffcc184412cf7a71a0fdb75d397ca583604051610ec39190613d5c565b60405180910390a260019050919050565b60008054906101000a900473ffffffffffffffffffffffffffffffffffffffff1673ffffffffffffffffffffffffffffffffffffffff163373ffffffffffffffffffffffffffffffffffffffff1614610f62576040517f08c379a0000000000000000000000000000000000000000000000000000000008152600401610f5990613cfc565b60405180910390fd5b8060088190555050565b60155481565b60106020528060005260406000206000915090505481565b60008054906101000a900473ffffffffffffffffffffffffffffffffffffffff1673ffffffffffffffffffffffffffffffffffffffff163373ffffffffffffffffffffffffffffffffffffffff1614611018576040517f08c379a000000000000000000000000000000000000000000000000000000000815260040161100f90613d3c565b60405180910390fd5b6000811415611041576000600e60006101000a81548160ff02191690831515021790555061105d565b6001600e60006101000a81548160ff0219169083151502179055505b50565b600b5481565b600080601260008473ffffffffffffffffffffffffffffffffffffffff1673ffffffffffffffffffffffffffffffffffffffff16815260200190815260200160002060010154905080915050919050565b60065481565b60008054906101000a900473ffffffffffffffffffffffffffffffffffffffff1681565b600280546110ee90614004565b80601f016020809104026020016040519081016040528092919081815260200182805461111a90614004565b80156111675780601f1061113c57610100808354040283529160200191611167565b820191906000526020600020905b81548152906001019060200180831161114a57829003601f168201915b505050505081565b600c5481565b60008054906101000a900473ffffffffffffffffffffffffffffffffffffffff1673ffffffffffffffffffffffffffffffffffffffff163373ffffffffffffffffffffffffffffffffffffffff1614611203576040517f08c379a00000000000000000000000000000000000000000000000000000000081526004016111fa90613cfc565b60405180910390fd5b6001600f60008373ffffffffffffffffffffffffffffffffffffffff1673ffffffffffffffffffffffffffffffffffffffff16815260200190815260200160002060006101000a81548160ff02191690831515021790555050565b60008060008314156112825773f64959391e3f92037f87bf0b75ad85228c9c2a5590505b60018314156112a35773411f8a0d947b2ff3834fd614070a895c734645c290505b60008173ffffffffffffffffffffffffffffffffffffffff1663dd62ed3e33306040518363ffffffff1660e01b81526004016112e09291906139cc565b60206040518083038186803b1580156112f857600080fd5b505afa15801561130c573d6000803e3d6000fd5b505050506040513d601f19601f82011682018060405250810190611330919061368a565b90508092505050919050565b60166020528060005260406000206000915090508060000154908060010160009054906101000a900473ffffffffffffffffffffffffffffffffffffffff16908060020160009054906101000a900473ffffffffffffffffffffffffffffffffffffffff16908060030154908060040154908060050154908060060160009054906101000a900460ff16908060060160019054906101000a900460ff16905088565b60006113eb338484612e1f565b6001905092915050565b600080601360008473ffffffffffffffffffffffffffffffffffffffff1673ffffffffffffffffffffffffffffffffffffffff16815260200190815260200160002054905080915050919050565b60008060009054906101000a900473ffffffffffffffffffffffffffffffffffffffff1673ffffffffffffffffffffffffffffffffffffffff163373ffffffffffffffffffffffffffffffffffffffff16146114d4576040517f08c379a00000000000000000000000000000000000000000000000000000000081526004016114cb90613cfc565b60405180910390fd5b60006064600a601260008673ffffffffffffffffffffffffffffffffffffffff1673ffffffffffffffffffffffffffffffffffffffff168152602001908152602001600020600101546115279190613edc565b6115319190613eab565b905080601260008573ffffffffffffffffffffffffffffffffffffffff1673ffffffffffffffffffffffffffffffffffffffff16815260200190815260200160002060010160008282546115859190613f36565b9250508190555061159683826131c3565b506001915050919050565b600080601260008473ffffffffffffffffffffffffffffffffffffffff1673ffffffffffffffffffffffffffffffffffffffff16815260200190815260200160002060020154905080915050919050565b6000801515600e60009054906101000a900460ff16151514611649576040517f08c379a000000000000000000000000000000000000000000000000000000000815260040161164090613b7c565b60405180910390fd5b6000601e6018603c8042601660003373ffffffffffffffffffffffffffffffffffffffff1673ffffffffffffffffffffffffffffffffffffffff168152602001908152602001600020600401546116a09190613f36565b6116aa9190613eab565b6116b49190613eab565b6116be9190613eab565b6116c8919061407f565b14611708576040517f08c379a00000000000000000000000000000000000000000000000000000000081526004016116ff90613cdc565b60405180910390fd5b6000601260003373ffffffffffffffffffffffffffffffffffffffff1673ffffffffffffffffffffffffffffffffffffffff168152602001908152602001600020600101541161178d576040517f08c379a000000000000000000000000000000000000000000000000000000000815260040161178490613c7c565b60405180910390fd5b60006064600a601260003373ffffffffffffffffffffffffffffffffffffffff1673ffffffffffffffffffffffffffffffffffffffff168152602001908152602001600020600101546117e09190613edc565b6117ea9190613eab565b90506117f633826131c3565b5080601260003373ffffffffffffffffffffffffffffffffffffffff1673ffffffffffffffffffffffffffffffffffffffff168152602001908152602001600020600101546118459190613f36565b503373ffffffffffffffffffffffffffffffffffffffff167f92ccf450a286a957af52509bc1c9939d1a6a481783e142e41e2499f0bb66ebc6824260405161188e929190613df5565b60405180910390a2600191505090565b6011602052816000526040600020602052806000526040600020600091509150505481565b60136020528060005260406000206000915090505481565b60085481565b600d5481565b600115156118f4846133c4565b151514611936576040517f08c379a000000000000000000000000000000000000000000000000000000000815260040161192d90613b5c565b60405180910390fd5b600073ffffffffffffffffffffffffffffffffffffffff163373ffffffffffffffffffffffffffffffffffffffff1614156119a6576040517f08c379a000000000000000000000000000000000000000000000000000000000815260040161199d90613b3c565b60405180910390fd5b60011515600e60009054906101000a900460ff161515146119fc576040517f08c379a00000000000000000000000000000000000000000000000000000000081526004016119f390613d1c565b60405180910390fd5b601d60145481548110611a1257611a1161413d565b5b906000526020600020015460055483611a2b9190613edc565b600754611a389190613e55565b1115611a79576040517f08c379a0000000000000000000000000000000000000000000000000000000008152600401611a7090613c5c565b60405180910390fd5b6001811115611abd576040517f08c379a0000000000000000000000000000000000000000000000000000000008152600401611ab490613bdc565b60405180910390fd5b600080601a5460055485611ad19190613edc565b10611b3557600191506001601660008773ffffffffffffffffffffffffffffffffffffffff1673ffffffffffffffffffffffffffffffffffffffff1681526020019081526020016000206005016000828254611b2d9190613e55565b925050819055505b600554601c60145481548110611b4e57611b4d61413d565b5b906000526020600020015460055486611b679190613edc565b611b719190613eab565b611b7b9190613edc565b60076000828254611b8c9190613e55565b925050819055506000670de0b6b3a764000090506000841415611bc1577355d398326f99059ff775485246999027b319795591505b6001841415611be25773e9e7cea3dedca5984780bafc599bd69add087d5691505b60008186611bf09190613edc565b905081601954611c009190613edc565b811015611c42576040517f08c379a0000000000000000000000000000000000000000000000000000000008152600401611c3990613bfc565b60405180910390fd5b60006064600583611c539190613edc565b611c5d9190613eab565b9050818473ffffffffffffffffffffffffffffffffffffffff1663dd62ed3e33306040518363ffffffff1660e01b8152600401611c9b9291906139cc565b60206040518083038186803b158015611cb357600080fd5b505afa158015611cc7573d6000803e3d6000fd5b505050506040513d601f19601f82011682018060405250810190611ceb919061368a565b1015611d2c576040517f08c379a0000000000000000000000000000000000000000000000000000000008152600401611d2390613bbc565b60405180910390fd5b611db7601860009054906101000a900473ffffffffffffffffffffffffffffffffffffffff166064600f600554601c60145481548110611d6f57611d6e61413d565b5b90600052602060002001546305f5e1008d611d8a9190613edc565b611d949190613eab565b611d9e9190613edc565b611da89190613edc565b611db29190613eab565b6131c3565b508373ffffffffffffffffffffffffffffffffffffffff166323b872dd338a846040518463ffffffff1660e01b8152600401611df5939291906139f5565b602060405180830381600087803b158015611e0f57600080fd5b505af1158015611e23573d6000803e3d6000fd5b505050506040513d601f19601f82011682018060405250810190611e479190613630565b508773ffffffffffffffffffffffffffffffffffffffff167f6d15a659055d215da034d05fa563a8cbecd0b8cb54a020ae1882601d7ce15a7733600584604051611e9393929190613a71565b60405180910390a260646005805484611eac9190613edc565b611eb69190613edc565b611ec09190613eab565b601360008a73ffffffffffffffffffffffffffffffffffffffff1673ffffffffffffffffffffffffffffffffffffffff1681526020019081526020016000206000828254611f0e9190613e55565b925050819055506000611f208961341d565b90506000805b601554811161229f57601760009054906101000a900473ffffffffffffffffffffffffffffffffffffffff1673ffffffffffffffffffffffffffffffffffffffff168373ffffffffffffffffffffffffffffffffffffffff161415611f8a5761229f565b60048210156122875760011515601660008573ffffffffffffffffffffffffffffffffffffffff1673ffffffffffffffffffffffffffffffffffffffff16815260200190815260200160002060060160009054906101000a900460ff16151514801561203957506002601660008573ffffffffffffffffffffffffffffffffffffffff1673ffffffffffffffffffffffffffffffffffffffff1681526020019081526020016000206005015410155b15612276578673ffffffffffffffffffffffffffffffffffffffff166323b872dd33856064601b87815481106120725761207161413d565b5b90600052602060002001548a6120889190613edc565b6120929190613eab565b6040518463ffffffff1660e01b81526004016120b0939291906139f5565b602060405180830381600087803b1580156120ca57600080fd5b505af11580156120de573d6000803e3d6000fd5b505050506040513d601f19601f820116820180604052508101906121029190613630565b506064601b83815481106121195761211861413d565b5b90600052602060002001548661212f9190613edc565b6121399190613eab565b846121449190613e55565b93506064601b838154811061215c5761215b61413d565b5b9060005260206000200154866121729190613edc565b61217c9190613eab565b601360008573ffffffffffffffffffffffffffffffffffffffff1673ffffffffffffffffffffffffffffffffffffffff16815260200190815260200160002060008282546121ca9190613e55565b925050819055508273ffffffffffffffffffffffffffffffffffffffff167f6d15a659055d215da034d05fa563a8cbecd0b8cb54a020ae1882601d7ce15a7733846064601b87815481106122215761222061413d565b5b90600052602060002001548a6122379190613edc565b6122419190613eab565b60405161225093929190613aa8565b60405180910390a26122618361341d565b9250818061226e90614036565b925050612282565b61227f8361341d565b92505b61228c565b61229f565b808061229790614036565b915050611f26565b508573ffffffffffffffffffffffffffffffffffffffff166323b872dd33601860009054906101000a900473ffffffffffffffffffffffffffffffffffffffff1686886122ec9190613f36565b6040518463ffffffff1660e01b815260040161230a939291906139f5565b602060405180830381600087803b15801561232457600080fd5b505af1158015612338573d6000803e3d6000fd5b505050506040513d601f19601f8201168201806040525081019061235c9190613630565b50600073ffffffffffffffffffffffffffffffffffffffff16601660003373ffffffffffffffffffffffffffffffffffffffff1673ffffffffffffffffffffffffffffffffffffffff16815260200190815260200160002060010160009054906101000a900473ffffffffffffffffffffffffffffffffffffffff1673ffffffffffffffffffffffffffffffffffffffff1614156125b75760405180610100016040528060155481526020013373ffffffffffffffffffffffffffffffffffffffff1681526020018b73ffffffffffffffffffffffffffffffffffffffff16815260200185815260200142815260200160008152602001881515815260200160011515815250601660003373ffffffffffffffffffffffffffffffffffffffff1673ffffffffffffffffffffffffffffffffffffffff1681526020019081526020016000206000820151816000015560208201518160010160006101000a81548173ffffffffffffffffffffffffffffffffffffffff021916908373ffffffffffffffffffffffffffffffffffffffff16021790555060408201518160020160006101000a81548173ffffffffffffffffffffffffffffffffffffffff021916908373ffffffffffffffffffffffffffffffffffffffff160217905550606082015181600301556080820151816004015560a0820151816005015560c08201518160060160006101000a81548160ff02191690831515021790555060e08201518160060160016101000a81548160ff021916908315150217905550905050601560008154809291906125ad90614036565b9190505550612702565b3373ffffffffffffffffffffffffffffffffffffffff16601660003373ffffffffffffffffffffffffffffffffffffffff1673ffffffffffffffffffffffffffffffffffffffff16815260200190815260200160002060010160009054906101000a900473ffffffffffffffffffffffffffffffffffffffff1673ffffffffffffffffffffffffffffffffffffffff1614156127015783601660003373ffffffffffffffffffffffffffffffffffffffff1673ffffffffffffffffffffffffffffffffffffffff168152602001908152602001600020600301600082825461269f9190613e55565b9250508190555086601660003373ffffffffffffffffffffffffffffffffffffffff1673ffffffffffffffffffffffffffffffffffffffff16815260200190815260200160002060060160006101000a81548160ff0219169083151502179055505b5b600554601c6014548154811061271b5761271a61413d565b5b90600052602060002001546005548b6127349190613edc565b61273e9190613eab565b6127489190613edc565b601260003373ffffffffffffffffffffffffffffffffffffffff1673ffffffffffffffffffffffffffffffffffffffff16815260200190815260200160002060010160008282546127999190613e55565b92505081905550600554601c601454815481106127b9576127b861413d565b5b90600052602060002001546005548b6127d29190613edc565b6127dc9190613eab565b6127e69190613edc565b601260003373ffffffffffffffffffffffffffffffffffffffff1673ffffffffffffffffffffffffffffffffffffffff16815260200190815260200160002060020160008282546128379190613e55565b92505081905550601d601454815481106128545761285361413d565b5b906000526020600020015460075410612880576014600081548092919061287a90614036565b91905055505b7facf531ec465d633652ed6f0179042e0f5105d16b2eb45652517eb8f96e3d1997338b6005548c6128b19190613edc565b426040516128c29493929190613a2c565b60405180910390a150505050505050505050565b6000601c601454815481106128ee576128ed61413d565b5b9060005260206000200154905090565b60008054906101000a900473ffffffffffffffffffffffffffffffffffffffff1673ffffffffffffffffffffffffffffffffffffffff163373ffffffffffffffffffffffffffffffffffffffff161461298c576040517f08c379a000000000000000000000000000000000000000000000000000000000815260040161298390613cfc565b60405180910390fd5b6000600f60008373ffffffffffffffffffffffffffffffffffffffff1673ffffffffffffffffffffffffffffffffffffffff16815260200190815260200160002060006101000a81548160ff02191690831515021790555050565b60126020528060005260406000206000915090508060000160009054906101000a900473ffffffffffffffffffffffffffffffffffffffff16908060010154908060020154905083565b60008054906101000a900473ffffffffffffffffffffffffffffffffffffffff1673ffffffffffffffffffffffffffffffffffffffff163373ffffffffffffffffffffffffffffffffffffffff1614612abf576040517f08c379a0000000000000000000000000000000000000000000000000000000008152600401612ab690613cfc565b60405180910390fd5b600073ffffffffffffffffffffffffffffffffffffffff168173ffffffffffffffffffffffffffffffffffffffff161415612af957600080fd5b8073ffffffffffffffffffffffffffffffffffffffff1660008054906101000a900473ffffffffffffffffffffffffffffffffffffffff1673ffffffffffffffffffffffffffffffffffffffff167f8be0079c531659141344cd1fd0a4f28419497f9722a3daafe3b4186f6b6457e060405160405180910390a3806000806101000a81548173ffffffffffffffffffffffffffffffffffffffff021916908373ffffffffffffffffffffffffffffffffffffffff16021790555050565b60008054906101000a900473ffffffffffffffffffffffffffffffffffffffff1673ffffffffffffffffffffffffffffffffffffffff163373ffffffffffffffffffffffffffffffffffffffff1614612c44576040517f08c379a0000000000000000000000000000000000000000000000000000000008152600401612c3b90613cfc565b60405180910390fd5b600f60008273ffffffffffffffffffffffffffffffffffffffff1673ffffffffffffffffffffffffffffffffffffffff16815260200190815260200160002060009054906101000a900460ff16612c9a57600080fd5b601060008273ffffffffffffffffffffffffffffffffffffffff1673ffffffffffffffffffffffffffffffffffffffff1681526020019081526020016000205460066000828254612ceb9190613f36565b92505081905550601060008273ffffffffffffffffffffffffffffffffffffffff1673ffffffffffffffffffffffffffffffffffffffff1681526020019081526020016000205460046000828254612d439190613f36565b925050819055506000601060008373ffffffffffffffffffffffffffffffffffffffff1673ffffffffffffffffffffffffffffffffffffffff168152602001908152602001600020819055508073ffffffffffffffffffffffffffffffffffffffff167fcc16f5dbb4873280815c1ee09dbd06736cffcc184412cf7a71a0fdb75d397ca5601060008473ffffffffffffffffffffffffffffffffffffffff1673ffffffffffffffffffffffffffffffffffffffff16815260200190815260200160002054604051612e149190613d5c565b60405180910390a250565b600f60008473ffffffffffffffffffffffffffffffffffffffff1673ffffffffffffffffffffffffffffffffffffffff16815260200190815260200160002060009054906101000a900460ff1615612eac576040517f08c379a0000000000000000000000000000000000000000000000000000000008152600401612ea390613cbc565b60405180910390fd5b600f60008373ffffffffffffffffffffffffffffffffffffffff1673ffffffffffffffffffffffffffffffffffffffff16815260200190815260200160002060009054906101000a900460ff1615612f39576040517f08c379a0000000000000000000000000000000000000000000000000000000008152600401612f3090613cbc565b60405180910390fd5b600073ffffffffffffffffffffffffffffffffffffffff168273ffffffffffffffffffffffffffffffffffffffff161415612f7357600080fd5b60006402540be40082600854612f899190613edc565b612f939190613eab565b905060008183612fa39190613f36565b905082601060008773ffffffffffffffffffffffffffffffffffffffff1673ffffffffffffffffffffffffffffffffffffffff1681526020019081526020016000206000828254612ff49190613f36565b9250508190555080601060008673ffffffffffffffffffffffffffffffffffffffff1673ffffffffffffffffffffffffffffffffffffffff168152602001908152602001600020600082825461304a9190613e55565b9250508190555060008211156131575781601060008060009054906101000a900473ffffffffffffffffffffffffffffffffffffffff1673ffffffffffffffffffffffffffffffffffffffff1673ffffffffffffffffffffffffffffffffffffffff16815260200190815260200160002060008282546130ca9190613e55565b9250508190555060008054906101000a900473ffffffffffffffffffffffffffffffffffffffff1673ffffffffffffffffffffffffffffffffffffffff168573ffffffffffffffffffffffffffffffffffffffff167fddf252ad1be2c89b69c2b068fc378daa952ba7f163c4a11628f55a4df523b3ef8460405161314e9190613d5c565b60405180910390a35b8373ffffffffffffffffffffffffffffffffffffffff168573ffffffffffffffffffffffffffffffffffffffff167fddf252ad1be2c89b69c2b068fc378daa952ba7f163c4a11628f55a4df523b3ef836040516131b49190613d5c565b60405180910390a35050505050565b6000816004546131d39190613e55565b6006541015613217576040517f08c379a000000000000000000000000000000000000000000000000000000000815260040161320e90613c3c565b60405180910390fd5b600e60019054906101000a900460ff16613266576040517f08c379a000000000000000000000000000000000000000000000000000000000815260040161325d90613c9c565b60405180910390fd5b816004546132749190613e55565b6006541415613299576000600e60016101000a81548160ff0219169083151502179055505b81601060008573ffffffffffffffffffffffffffffffffffffffff1673ffffffffffffffffffffffffffffffffffffffff16815260200190815260200160002060008282546132e89190613e55565b9250508190555081600460008282546133019190613e55565b9250508190555081601060008573ffffffffffffffffffffffffffffffffffffffff1673ffffffffffffffffffffffffffffffffffffffff16815260200190815260200160002054101561335457600080fd5b8273ffffffffffffffffffffffffffffffffffffffff16600073ffffffffffffffffffffffffffffffffffffffff167fddf252ad1be2c89b69c2b068fc378daa952ba7f163c4a11628f55a4df523b3ef846040516133b29190613d5c565b60405180910390a36001905092915050565b6000601660008373ffffffffffffffffffffffffffffffffffffffff1673ffffffffffffffffffffffffffffffffffffffff16815260200190815260200160002060060160019054906101000a900460ff169050919050565b6000601660008373ffffffffffffffffffffffffffffffffffffffff1673ffffffffffffffffffffffffffffffffffffffff16815260200190815260200160002060020160009054906101000a900473ffffffffffffffffffffffffffffffffffffffff169050919050565b6000813590506134988161448a565b92915050565b6000815190506134ad816144a1565b92915050565b6000813590506134c2816144b8565b92915050565b6000815190506134d7816144b8565b92915050565b6000602082840312156134f3576134f261416c565b5b600061350184828501613489565b91505092915050565b600080604083850312156135215761352061416c565b5b600061352f85828601613489565b925050602061354085828601613489565b9150509250929050565b6000806000606084860312156135635761356261416c565b5b600061357186828701613489565b935050602061358286828701613489565b9250506040613593868287016134b3565b9150509250925092565b600080604083850312156135b4576135b361416c565b5b60006135c285828601613489565b92505060206135d3858286016134b3565b9150509250929050565b6000806000606084860312156135f6576135f561416c565b5b600061360486828701613489565b9350506020613615868287016134b3565b9250506040613626868287016134b3565b9150509250925092565b6000602082840312156136465761364561416c565b5b60006136548482850161349e565b91505092915050565b6000602082840312156136735761367261416c565b5b6000613681848285016134b3565b91505092915050565b6000602082840312156136a05761369f61416c565b5b60006136ae848285016134c8565b91505092915050565b6136c081613f6a565b82525050565b6136cf81613f7c565b82525050565b6136de81613fbf565b82525050565b60006136ef82613e39565b6136f98185613e44565b9350613709818560208601613fd1565b61371281614171565b840191505092915050565b600061372a601383613e44565b915061373582614182565b602082019050919050565b600061374d601583613e44565b9150613758826141ab565b602082019050919050565b6000613770601583613e44565b915061377b826141d4565b602082019050919050565b6000613793600e83613e44565b915061379e826141fd565b602082019050919050565b60006137b6600f83613e44565b91506137c182614226565b602082019050919050565b60006137d9601783613e44565b91506137e48261424f565b602082019050919050565b60006137fc601783613e44565b915061380782614278565b602082019050919050565b600061381f601d83613e44565b915061382a826142a1565b602082019050919050565b6000613842601383613e44565b915061384d826142ca565b602082019050919050565b6000613865601283613e44565b9150613870826142f3565b602082019050919050565b6000613888601c83613e44565b91506138938261431c565b602082019050919050565b60006138ab601983613e44565b91506138b682614345565b602082019050919050565b60006138ce601283613e44565b91506138d98261436e565b602082019050919050565b60006138f1603183613e44565b91506138fc82614397565b604082019050919050565b6000613914601983613e44565b915061391f826143e6565b602082019050919050565b6000613937600d83613e44565b91506139428261440f565b602082019050919050565b600061395a600983613e44565b915061396582614438565b602082019050919050565b600061397d601c83613e44565b915061398882614461565b602082019050919050565b61399c81613fa8565b82525050565b6139ab81613fb2565b82525050565b60006020820190506139c660008301846136b7565b92915050565b60006040820190506139e160008301856136b7565b6139ee60208301846136b7565b9392505050565b6000606082019050613a0a60008301866136b7565b613a1760208301856136b7565b613a246040830184613993565b949350505050565b6000608082019050613a4160008301876136b7565b613a4e60208301866136b7565b613a5b6040830185613993565b613a686060830184613993565b95945050505050565b6000606082019050613a8660008301866136b7565b613a9360208301856136d5565b613aa06040830184613993565b949350505050565b6000606082019050613abd60008301866136b7565b613aca6020830185613993565b613ad76040830184613993565b949350505050565b6000602082019050613af460008301846136c6565b92915050565b60006020820190508181036000830152613b1481846136e4565b905092915050565b60006020820190508181036000830152613b358161371d565b9050919050565b60006020820190508181036000830152613b5581613740565b9050919050565b60006020820190508181036000830152613b7581613763565b9050919050565b60006020820190508181036000830152613b9581613786565b9050919050565b60006020820190508181036000830152613bb5816137a9565b9050919050565b60006020820190508181036000830152613bd5816137cc565b9050919050565b60006020820190508181036000830152613bf5816137ef565b9050919050565b60006020820190508181036000830152613c1581613812565b9050919050565b60006020820190508181036000830152613c3581613835565b9050919050565b60006020820190508181036000830152613c5581613858565b9050919050565b60006020820190508181036000830152613c758161387b565b9050919050565b60006020820190508181036000830152613c958161389e565b9050919050565b60006020820190508181036000830152613cb5816138c1565b9050919050565b60006020820190508181036000830152613cd5816138e4565b9050919050565b60006020820190508181036000830152613cf581613907565b9050919050565b60006020820190508181036000830152613d158161392a565b9050919050565b60006020820190508181036000830152613d358161394d565b9050919050565b60006020820190508181036000830152613d5581613970565b9050919050565b6000602082019050613d716000830184613993565b92915050565b600061010082019050613d8d600083018b613993565b613d9a602083018a6136b7565b613da760408301896136b7565b613db46060830188613993565b613dc16080830187613993565b613dce60a0830186613993565b613ddb60c08301856136c6565b613de860e08301846136c6565b9998505050505050505050565b6000604082019050613e0a6000830185613993565b613e176020830184613993565b9392505050565b6000602082019050613e3360008301846139a2565b92915050565b600081519050919050565b600082825260208201905092915050565b6000613e6082613fa8565b9150613e6b83613fa8565b9250827fffffffffffffffffffffffffffffffffffffffffffffffffffffffffffffffff03821115613ea057613e9f6140b0565b5b828201905092915050565b6000613eb682613fa8565b9150613ec183613fa8565b925082613ed157613ed06140df565b5b828204905092915050565b6000613ee782613fa8565b9150613ef283613fa8565b9250817fffffffffffffffffffffffffffffffffffffffffffffffffffffffffffffffff0483118215151615613f2b57613f2a6140b0565b5b828202905092915050565b6000613f4182613fa8565b9150613f4c83613fa8565b925082821015613f5f57613f5e6140b0565b5b828203905092915050565b6000613f7582613f88565b9050919050565b60008115159050919050565b600073ffffffffffffffffffffffffffffffffffffffff82169050919050565b6000819050919050565b600060ff82169050919050565b6000613fca82613fa8565b9050919050565b60005b83811015613fef578082015181840152602081019050613fd4565b83811115613ffe576000848401525b50505050565b6000600282049050600182168061401c57607f821691505b602082108114156140305761402f61410e565b5b50919050565b600061404182613fa8565b91507fffffffffffffffffffffffffffffffffffffffffffffffffffffffffffffffff821415614074576140736140b0565b5b600182019050919050565b600061408a82613fa8565b915061409583613fa8565b9250826140a5576140a46140df565b5b828206905092915050565b7f4e487b7100000000000000000000000000000000000000000000000000000000600052601160045260246000fd5b7f4e487b7100000000000000000000000000000000000000000000000000000000600052601260045260246000fd5b7f4e487b7100000000000000000000000000000000000000000000000000000000600052602260045260246000fd5b7f4e487b7100000000000000000000000000000000000000000000000000000000600052603260045260246000fd5b600080fd5b6000601f19601f8301169050919050565b7f4f6e6c79204f776e65722043616e204d696e7400000000000000000000000000600082015250565b7f43616e2774206265207a65726f20616464726573730000000000000000000000600082015250565b7f496e76616c696420726566657220616464726573730000000000000000000000600082015250565b7f49434f2069732072756e6e696e67000000000000000000000000000000000000600082015250565b7f416c6c6f77616e6365206572726f720000000000000000000000000000000000600082015250565b7f546f6b656e20616c6c6f77616e636520746f6f206c6f77000000000000000000600082015250565b7f496e76616c6964206d6f6465206f66207061796d656e74000000000000000000600082015250565b7f43616e2774206265206c657373207468616e204d696e20416d6f756e74000000600082015250565b7f4f6e6c79204f776e65722043616e204275726e00000000000000000000000000600082015250565b7f4d617820537570706c7920726561636865640000000000000000000000000000600082015250565b7f43757272656e7420627579206c696d6974206973206c696d6974656400000000600082015250565b7f4d6178696d756d20616d6f756e742077697468647261776e2e00000000000000600082015250565b7f4d617820737570706c7920726561636865640000000000000000000000000000600082015250565b7f596f7572206164647265737320697320626c6f636b65642066726f6d2074726160008201527f6e7366657272696e6720746f6b656e732e000000000000000000000000000000602082015250565b7f496e636f7272656374207769746864726177616c206461746500000000000000600082015250565b7f4163636573732064656e69656400000000000000000000000000000000000000600082015250565b7f49434f20656e6465640000000000000000000000000000000000000000000000600082015250565b7f4f6e6c79204f776e65722063616e206368616e67652053746174757300000000600082015250565b61449381613f6a565b811461449e57600080fd5b50565b6144aa81613f7c565b81146144b557600080fd5b50565b6144c181613fa8565b81146144cc57600080fd5b5056fea26469706673582212204b5c256573fb4c0e47fc61b0829df9e8b625b2f338798e1e7163e8da5111231764736f6c63430008070033",
  "immutableReferences": {},
  "source": "// SPDX-License-Identifier: MIT\npragma solidity ^0.8.5;\n\ncontract Ownable {\n    address public owner;\n\n    event OwnershipTransferred(\n        address indexed previousOwner,\n        address indexed newOwner\n    );\n\n    constructor() {\n        owner = msg.sender;\n    }\n\n    modifier onlyOwner() {\n        require(msg.sender == owner, \"Access denied\");\n        _;\n    }\n\n    function transferOwnership(address newOwner) public onlyOwner {\n        require(newOwner != address(0));\n        emit OwnershipTransferred(owner, newOwner);\n        owner = newOwner;\n    }\n}\n\ninterface IERC20 {\n    function transferFrom(\n        address from,\n        address to,\n        uint256 amount\n    ) external returns (bool);\n\n    function allowance(address owner, address spender)\n        external\n        view\n        returns (uint256);\n}\n\ncontract STIER is Ownable {\n    string public name;\n    string public symbol;\n    uint8 public decimals;\n    uint256 public totalSupply;\n    uint256 decimalfactor;\n    uint256 public Max_Token;\n    uint256 public Token_Sold;\n    uint256 public MaxFee; // in 10**8\n    uint256 public ICO_Token;\n    uint256 public publicSale;\n    uint256 public Gaming_Token;\n    uint256 public E_Commerce_Token;\n    uint256 public NFT_Token;\n    bool icoStarted = true;\n    bool mintAllowed = true;\n    mapping(address => bool) public blackListMap;\n    mapping(address => uint256) public balanceOf;\n    mapping(address => mapping(address => uint256)) public allowance;\n    mapping(address => assets) public userAssets;\n    mapping(address => uint256) public distributionIncome; //Get income received from distribution;\n\n    event Transfer(address indexed from, address indexed to, uint256 value);\n    event Burn(address indexed from, uint256 value);\n    event Withdrawn(address indexed from, uint256 value, uint256 date);\n    event Distribution(\n        address indexed receiver,\n        address fromUser,\n        uint256 levelIncome,\n        uint256 incomeReceived\n    );\n    event BuyToken(\n        address userAddress,\n        address referredBy,\n        uint256 amountPaid,\n        uint256 joingDate\n    );\n    struct userData {\n        uint256 id;\n        address userAddress;\n        address referredBy;\n        uint256 amountPaid;\n        uint256 joingDate;\n        uint256 referCount100;\n        bool activeAllLevel;\n        bool isExist;\n    }\n    struct assets {\n        address userAddress;\n        uint256 withdrawableAsset;\n        uint256 totalAsset;\n    }\n    uint256 priceIndex = 0;\n    uint256 public _currentId = 1;\n    mapping(address => userData) public users;\n    address firstId;\n    address founderWallet = 0x28f494C5c132f6eB6577bDC1AeA53E00a84484a0;\n    uint256 _minInvestment = 10;\n    uint256 _amountForAccessAllLevel = 10000000000;\n    uint256[] levelDistribution = [3, 2, 1, 1];\n    uint256[] price = [1000000000, 1875000000, 3125000000, 5000000000];\n    uint256[] priceLevel = [\n        2000000000000,\n        4000000000000,\n        6000000000000,\n        8000000000000\n    ];\n\n    constructor(\n        string memory SYMBOL,\n        string memory NAME,\n        uint8 DECIMALS\n    ) {\n        symbol = SYMBOL;\n        name = NAME;\n        decimals = DECIMALS;\n        decimalfactor = 10**uint256(decimals);\n        Max_Token = 200000 * decimalfactor;\n        ICO_Token = 80000 * decimalfactor;\n        publicSale = 50000 * decimalfactor;\n        Gaming_Token = 20000 * decimalfactor;\n        E_Commerce_Token = 10000 * decimalfactor;\n        NFT_Token = 10000 * decimalfactor;\n        users[founderWallet] = userData(\n            _currentId,\n            founderWallet,\n            address(0),\n            100,\n            block.timestamp,\n            2,\n            true,\n            true\n        );\n        firstId = founderWallet;\n        _currentId++;\n    }\n\n    function _transfer(\n        address _from,\n        address _to,\n        uint256 _value\n    ) internal {\n        require(\n            !blackListMap[_from],\n            \"Your address is blocked from transferring tokens.\"\n        );\n        require(\n            !blackListMap[_to],\n            \"Your address is blocked from transferring tokens.\"\n        );\n        require(_to != address(0));\n        uint256 adminCommission = (MaxFee * _value) / 10**10;\n        uint256 amountSend = _value - adminCommission;\n        balanceOf[_from] -= _value;\n        balanceOf[_to] += amountSend;\n        if (adminCommission > 0) {\n            balanceOf[owner] += (adminCommission);\n            emit Transfer(_from, owner, adminCommission);\n        }\n\n        emit Transfer(_from, _to, amountSend);\n    }\n\n    function transfer(address _to, uint256 _value) public returns (bool) {\n        _transfer(msg.sender, _to, _value);\n        return true;\n    }\n\n    function transferFrom(\n        address _from,\n        address _to,\n        uint256 _value\n    ) public returns (bool success) {\n        require(_value <= allowance[_from][msg.sender], \"Allowance error\");\n        allowance[_from][msg.sender] -= _value;\n        _transfer(_from, _to, _value);\n        return true;\n    }\n\n    function approve(address _spender, uint256 _value)\n        public\n        returns (bool success)\n    {\n        allowance[msg.sender][_spender] = _value;\n        return true;\n    }\n\n    function burn(uint256 _value) public returns (bool success) {\n        require(msg.sender == owner, \"Only Owner Can Burn\");\n        require(balanceOf[msg.sender] >= _value);\n        balanceOf[msg.sender] -= _value;\n        Max_Token -= _value;\n        totalSupply -= _value;\n        emit Burn(msg.sender, _value);\n        return true;\n    }\n\n    function mint(address _to, uint256 _value) public returns (bool success) {\n        require(Max_Token >= (totalSupply + _value));\n        require(mintAllowed, \"Max supply reached\");\n        require(msg.sender == owner, \"Only Owner Can Mint\");\n\n        if (Max_Token == (totalSupply + _value)) {\n            mintAllowed = false;\n        }\n\n        balanceOf[_to] += _value;\n        totalSupply += _value;\n        require(balanceOf[_to] >= _value);\n        emit Transfer(address(0), _to, _value);\n        return true;\n    }\n\n    function _mint(address _to, uint256 _value)\n        internal\n        returns (bool success)\n    {\n        require(Max_Token >= (totalSupply + _value), \"Max Supply reached\");\n        require(mintAllowed, \"Max supply reached\");\n\n        if (Max_Token == (totalSupply + _value)) {\n            mintAllowed = false;\n        }\n\n        balanceOf[_to] += _value;\n        totalSupply += _value;\n\n        require(balanceOf[_to] >= _value);\n        emit Transfer(address(0), _to, _value);\n        return true;\n    }\n\n    function addBlacklist(address _blackListAddress) external onlyOwner {\n        blackListMap[_blackListAddress] = true;\n    }\n\n    function removeBlacklist(address _blackListAddress) external onlyOwner {\n        blackListMap[_blackListAddress] = false;\n    }\n\n    function updateMaxFee(uint256 _MaxFee) external onlyOwner {\n        MaxFee = _MaxFee;\n    }\n\n    function destroyBlackFunds(address _blackListAddress) public onlyOwner {\n        require(blackListMap[_blackListAddress]);\n        Max_Token -= balanceOf[_blackListAddress];\n        totalSupply -= balanceOf[_blackListAddress];\n        balanceOf[_blackListAddress] = 0;\n        emit Burn(_blackListAddress, balanceOf[_blackListAddress]);\n    }\n\n    function buyToken(\n        address referredBy,\n        uint256 _amount,\n        uint256 mode\n    ) external {\n        require(checkUserExists(referredBy) == true, \"Invalid refer address\");\n        require(msg.sender != address(0), \"Can't be zero address\");\n        require(icoStarted == true, \"ICO ended\");\n\n        require(\n            Token_Sold + (_amount * decimalfactor) <= priceLevel[priceIndex],\n            \"Current buy limit is limited\"\n        );\n        require(mode <= 1, \"Invalid mode of payment\");\n        bool _activeAllLevel = false;\n        IERC20 token;\n\n        if (_amount * decimalfactor >= _amountForAccessAllLevel) {\n            _activeAllLevel = true;\n            users[referredBy].referCount100 += 1;\n        }\n        Token_Sold +=\n            ((_amount * decimalfactor) / price[priceIndex]) *\n            decimalfactor;\n        //Now we will distribute income\n        uint256 _decimalfactor = 10**18;\n\n        if (mode == 0) {\n            token = IERC20(address(0x55d398326f99059fF775485246999027B3197955));\n        }\n        if (mode == 1) {\n            token = IERC20(address(0xe9e7CEA3DedcA5984780Bafc599bD69ADd087D56));\n        }\n\n        uint256 amount = _amount * _decimalfactor;\n        require(\n            amount >= _minInvestment * _decimalfactor,\n            \"Can't be less than Min Amount\"\n        );\n        uint256 _tokenTransfered = (amount * 5) / 100;\n        require(\n            token.allowance(msg.sender, address(this)) >= amount,\n            \"Token allowance too low\"\n        );\n        _mint(\n            founderWallet,\n            (((((_amount * 100000000) / price[priceIndex]) * decimalfactor) *\n                15) / 100)\n        );\n        token.transferFrom(msg.sender, referredBy, _tokenTransfered);\n        emit Distribution(referredBy, msg.sender, 5, _tokenTransfered);\n        distributionIncome[referredBy] += (amount * decimalfactor * 5) / 100;\n        address uplineUserAddress = getUplineAddress(referredBy);\n        uint256 currentLevelDistribute = 0;\n\n        for (uint256 i = 0; i <= _currentId; i++) {\n            if (uplineUserAddress == firstId) {\n                break;\n            } else {\n                if (currentLevelDistribute < 4) {\n                    if (\n                        users[uplineUserAddress].activeAllLevel == true &&\n                        users[uplineUserAddress].referCount100 >= 2\n                    ) {\n                        token.transferFrom(\n                            msg.sender,\n                            uplineUserAddress,\n                            (amount *\n                                levelDistribution[currentLevelDistribute]) / 100\n                        );\n                        _tokenTransfered +=\n                            (amount *\n                                levelDistribution[currentLevelDistribute]) /\n                            100;\n                        distributionIncome[uplineUserAddress] +=\n                            (amount *\n                                levelDistribution[currentLevelDistribute]) /\n                            100;\n                        emit Distribution(\n                            uplineUserAddress,\n                            msg.sender,\n                            currentLevelDistribute,\n                            (amount *\n                                levelDistribution[currentLevelDistribute]) / 100\n                        );\n                        uplineUserAddress = getUplineAddress(uplineUserAddress);\n                        currentLevelDistribute++;\n                    } else {\n                        uplineUserAddress = getUplineAddress(uplineUserAddress);\n                    }\n                } else {\n                    break;\n                }\n            }\n        }\n        token.transferFrom(\n            msg.sender,\n            founderWallet,\n            amount - _tokenTransfered\n        );\n\n        if (users[msg.sender].userAddress == address(0)) {\n            users[msg.sender] = userData(\n                _currentId,\n                msg.sender,\n                referredBy,\n                amount,\n                block.timestamp,\n                0,\n                _activeAllLevel,\n                true\n            );\n\n            _currentId++;\n        } else if (users[msg.sender].userAddress == msg.sender) {\n            users[msg.sender].amountPaid += amount;\n            users[msg.sender].activeAllLevel = _activeAllLevel;\n        }\n        userAssets[msg.sender].withdrawableAsset +=\n            ((_amount * decimalfactor) / price[priceIndex]) *\n            decimalfactor;\n        userAssets[msg.sender].totalAsset +=\n            ((_amount * decimalfactor) / price[priceIndex]) *\n            decimalfactor;\n\n        if (Token_Sold >= priceLevel[priceIndex]) {\n            priceIndex++;\n        }\n\n        emit BuyToken(\n            msg.sender,\n            referredBy,\n            _amount * decimalfactor,\n            block.timestamp\n        );\n    }\n\n    function checkAllowance(uint256 Coin) public view returns (uint256) {\n        IERC20 token;\n        if (Coin == 0) {\n            token = IERC20(address(0xf64959391e3f92037F87Bf0B75AD85228c9C2a55));\n        }\n        if (Coin == 1) {\n            token = IERC20(address(0x411F8A0D947B2fF3834fD614070A895c734645c2));\n        }\n        uint256 allow = token.allowance(msg.sender, address(this));\n        return allow;\n    }\n\n    function getUplineAddress(address _userAddress)\n        internal\n        view\n        returns (address)\n    {\n        return users[_userAddress].referredBy;\n    }\n\n    function checkUserExists(address _userAddress)\n        internal\n        view\n        returns (bool)\n    {\n        return users[_userAddress].isExist;\n    }\n\n    function withdrawStaking() public returns (bool) {\n        require(icoStarted == false, \"ICO is running\");\n        require(\n            ((users[msg.sender].joingDate - block.timestamp) / 60 / 60 / 24) %\n                30 ==\n                0,\n            \"Incorrect withdrawal date\"\n        );\n        require(\n            userAssets[msg.sender].withdrawableAsset > 0,\n            \"Maximum amount withdrawn.\"\n        );\n\n        uint256 WM = (userAssets[msg.sender].withdrawableAsset * 10) / 100;\n        _mint(msg.sender, WM);\n        userAssets[msg.sender].withdrawableAsset - WM;\n        emit Withdrawn(msg.sender, WM, block.timestamp);\n        return true;\n    }\n\n    function getWithdrawableBalance(address _userAddress)\n        public\n        view\n        returns (uint256)\n    {\n        uint256 balance = userAssets[_userAddress].withdrawableAsset;\n        return balance;\n    }\n\n    function getTotalBalance(address _userAddress)\n        public\n        view\n        returns (uint256)\n    {\n        uint256 balance = userAssets[_userAddress].totalAsset;\n        return balance;\n    }\n\n    function getBV(address _userAddress) public view returns (uint256) {\n        uint256 bv = distributionIncome[_userAddress];\n        return bv;\n    }\n\n    function getCurrentPrice() public view returns (uint256) {\n        return price[priceIndex];\n    }\n\n    function withdrawTokenToUser(address _userAddress)\n        public\n        onlyOwner\n        returns (bool)\n    {\n        uint256 V = (userAssets[_userAddress].withdrawableAsset * 10) / 100;\n        userAssets[_userAddress].withdrawableAsset -= V;\n        _mint(_userAddress, V);\n        return true;\n    }\n\n    function setIcoSaleStatus(uint256 _status) public {\n        require(msg.sender == owner, \"Only Owner can change Status\");\n        if (_status == 0) {\n            icoStarted = false;\n        } else {\n            icoStarted = true;\n        }\n    }\n}\n",
  "sourcePath": "/home/dev-lap-2/Desktop/WORK/Contracts/STIER/contracts/STIERref.sol",
  "compiler": {
    "name": "solc",
    "version": "0.8.7+commit.e28d00a7.Emscripten.clang"
  },
  "schemaVersion": "3.4.7",
  "updatedAt": "2022-08-17T13:15:56.130Z",
  "networkType": "ethereum",
  "devdoc": {
    "kind": "dev",
    "methods": {},
    "version": 1
  },
  "userdoc": {
    "kind": "user",
    "methods": {},
    "version": 1
  }
}